:10168A00040309041203790075006C0065006900FF
:10169A00740061006F00140343004D0053004900B9
:1016AA0053002D004400410050001A033400380052
:1016BA004500410038003000360045003300310053
:1016CA00330039001C0343004D0053004900530006
:1016DA002D00440041005000200043004400430014
:1016EA001C0343004D005300490053002D004400E1
:1016FA004100500020004400430049001403430005
:10170A004D005300490053002D0044004100500091
:10171A0012010002EF02014051C201F00001010270
:10172A0003010600FF0901A101150026FF00750843
:10173A00954009018102954009019102950109012B
:10174A00B102C009026B000301008032080B0002DB
:10175A000202010409040000010202000405240037
:10176A0010010524010101042402020524060001D6
:10177A000705810340000209040100020A0000056E
:10178A000705020240000007058202400000090422
:10179A0002000203000006092100010001222100C3
:0E17AA0007058303400001070503034000010B
:101BFE0041028400013400012C00012A000124005E
:101C0E00012900072D000000000000000225000041
:0B14D100900290EBF0A3EAF0A3E9F01A
:1014DC0090029312117500000000781576007816B2
:1014EC007600900290E0FBA3E0FAA3E0F97582038A
:1014FC00758300121058FF900293EFF0900290E069
:10150C00FBA3E0FAA3E0F975820275830012105870
:10151C00FF900294EFF0900290E0FBA3E0FAA3E0BE
:10152C00F9758201758300121058FF900295EFF047
:10153C00900290E0FBA3E0FAA3E0F912103FFF90B9
:10154C000296EFF07F681200467F071200467B4040
:10155C007A42790F7800900293E0FCA3E0FDA3E0BF
:10156C00FEA3E0FF1210D7EF2430FF1200467B40A1
:10157C007A42790F7800900293E0FCA3E0FDA3E09F
:10158C00FEA3E0FF1210D7FCFDFEFF7BA07A86794C
:10159C000178001210D7EF2430FF1200467BA07A9E
:1015AC008679017800900293E0FCA3E0FDA3E0FEB5
:1015BC00A3E0FF1210D7FCFDFEFF7B107A27790009
:1015CC0078001210D7EF2430FF1200467B107A27D8
:1015DC0079007800900293E0FCA3E0FDA3E0FEA369
:1015EC00E0FF1210D7FCFDFEFF7BE87A0379007850
:1015FC00001210D7EF2430FF1200467BE87A0379F3
:10160C00007800900293E0FCA3E0FDA3E0FEA3E0D1
:10161C00FF1210D7FCFDFEFF7B647A007900780086
:10162C001210D7EF2430FF1200467B647A00790049
:10163C007800900293E0FCA3E0FDA3E0FEA3E0FFA2
:10164C001210D7FCFDFEFF7B0A7A0079007800129D
:10165C0010D7EF2430FF1200467B0A7A007900780D
:10166C0000900293E0FCA3E0FDA3E0FEA3E0FF12D8
:0D167C0010D7FCFDFEFFEF2430FF120046EA
:01168900223E
:101B9C00C2EA75E20075D18053D1FB53E2BF7B01E1
:101BAC007A007900FEFF8EED8FEC75DC027B017AFA
:101BBC00007940FEFF8EEF8FEE53EAF375D2127B65
:101BCC00017A007980FEFF8EE58FE47B017A017942
:101BDC0000FEFF8EE78FE643EBCC75D41275D61A58
:101BEC0075E30043E22943D10175D8FF75E107D2B3
:021BFC00EA22DB
:0300430002006652
:0D006600C0E0C0F0C083C082C0D075D008DB
:1000730020D9030207B6E5D9543FFFEF1211A607B3
:10008300160000B20200E103066F20009E2100CD9E
:100093002200F723010B30000007B475D300782B3F
:1000A3007600E5D254FCFFEF4402F5D20207B420F8
:1000B300DE030207B47824A6DB78297600E5D4545E
:1000C300F3FFEF4408F5D40207B475D500E5D45423
:1000D300FCFFEF4402F5D4782C76000207B420DE4F
:1000E300030207B4E5DB70030207B49002847401D2
:1000F300F00207B47834760075D700E5D654FCFFD8
:10010300EF4402F5D60207B490029CE5DBF09002BF
:100113009CE0FF7E00EF64084E600302062A900015
:1001230006E0FF7827EFF6900007E0FFEF70117805
:1001330027E6FF7E00D3EF947FEE64809480400433
:100143007827767F90029CE4F0900001E0FF782806
:10015300EFF6900000E0FFEF5460FFEF1211A601ED
:100163006F0004F420055040000005877828E6FF5F
:10017300EF1211A604B800032F0103A40302EE0536
:1001830001930602FA08032009058D0A000004E81A
:10019300900003E0FFEF1211A601AC0101C60201BA
:1001A300E00302C422000002E27BFF7A17791A906F
:1001B300028DEBF0A3EAF0A3E9F090029C7412F035
:1001C30002058D7BFF7A17794D90028DEBF0A3EA40
:1001D300F0A3E9F090029C746BF002058D9000028D
:1001E300E0FFEF1211A6020200021C010236020216
:1001F3005003026A04028405029E06000002B87BD3
:10020300FF7A16798A90028DEBF0A3EAF0A3E9F066
:1002130090029C7404F002058D7BFF7A16798E9010
:10022300028DEBF0A3EAF0A3E9F090029C7412F0C4
:1002330002058D7BFF7A1679A090028DEBF0A3EA7D
:10024300F0A3E9F090029C7414F002058D7BFF7A11
:100253001679B490028DEBF0A3EAF0A3E9F09002D3
:100263009C741AF002058D7BFF7A1679CE90028D6D
:10027300EBF0A3EAF0A3E9F090029C741CF00205F2
:100283008D7BFF7A1679EA90028DEBF0A3EAF0A357
:10029300E9F090029C741CF002058D7BFF7A1779BC
:1002A3000690028DEBF0A3EAF0A3E9F090029C74B0
:1002B30014F002058D90029C74FFF002058D020577
:1002C3008D7BFF7A17792C90028DEBF0A3EAF0A3D4
:1002D300E9F090029C7421F07835760102058D9047
:1002E300029C74FFF002058D02058D900002E0FF71
:1002F3007827EFF602058D7822E6FF900000EFF0F5
:100303007827E6FF7E00C3EF9401EE64809480506B
:100313000302058D90029C7401F002058D9000028A
:10032300E0FF7822EFF602058D02058D900000E0D4
:10033300FFEF541FFF7E00EF64024E705B900004DA
:10034300E0FFEF1211A6037602038903035C810326
:100353006982037C830000038FE5D254BCFFEF4422
:1003630002F5D202058DE5D454BCFFEF4402F5D467
:1003730002058D53D47302058DE5D654BCFFEF44BB
:1003830002F5D602058D53D67302058D90029C7437
:10039300FFF002058D02058D90029C74FFF00205AB
:1003A3008D900000E0FFEF541FFF7E00EF4E703D85
:1003B300900003E0FF7E00EF7F00FE900002E0FD6F
:1003C3007C00EE4CFEEF4DFFEF64014E701690176C
:1003D30054E493FFEF30E50302058D90029C74FF14
:1003E300F002058D90029C74FFF002058D900000D1
:1003F300E0FFEF541FFF7E00EF64024E6003020430
:10040300AF900003E0FF7E00EF7F00FE900002E06C
:10041300FD7C00EE4CFEEF4DFFEF4E60030204A6A1
:10042300900005E0FF7E00EF7F00FE900004E0FDFA
:100433007C00EE4CFEEF4DFFEF8EF01211CC0473F7
:100443000002048D000304590081046600820480C5
:1004530000830000049AE5D254BFFFEF4403F5D2B2
:1004630002058DE5D454BFFFEF4403F5D402058D97
:10047300E5D4547FFFEF440CF5D402058DE5D65443
:10048300BFFFEF4403F5D602058DE5D6547FFFEF9A
:10049300440CF5D602058D90029C74FFF002058D85
:1004A30002058D90029C74FFF002058D90029C74EE
:1004B300FFF002058D900000E4F0900001E4F07875
:1004C30027E6FF7E00C3EF9402EE64809480400928
:1004D30090029C7402F002058D7827E6FF90029C3F
:1004E300EFF002058D90029C74FFF002058D02056A
:1004F3008D900000E0FFEF541FFF7E00EF64014E7C
:10050300600302058D7828E6FFEF1211A6058D2002
:10051300051F2105382200000546806E7B007A0006
:10052300792D90028DEBF0A3EAF0A3E9F090029C01
:100533007407F08055900002E0FFEF04FF782AEF84
:10054300F6804790029C74FFF0803F803D9000004E
:10055300E0FFEF541FFF7E00EF4E702E7828E6FF7A
:10056300EF1211A6056E200000057D900004E0FF48
:100573007E00EF64074E7012801090029C74FFF0AF
:100583008008800690029C74FFF090029CE0FF7E3E
:1005930000EF4E700302063090029CE0FF7E00EFF6
:1005A30064FF4E700302063090029CE0FF7827E65A
:1005B300FEEED39F400990029CE0FF7827EFF67888
:1005C30027E6FF7E00C3EF9440EE648094804004EE
:1005D3007F4080047827E6FF90029CEFF090029C16
:1005E300E0FF7E0090028DE0FBA3E0FAA3E0F9C0F8
:1005F300E0C0E0C0E07B017A007900F8FCFDF9FA85
:10060300FB1210197827E6FF90029CE0FEC3EF9ED1
:10061300FF7827EFF690029CE0FF7E0090028EEEBB
:100623008FF0121085800690029C74FFF090029C5C
:10063300E0FF7E00EF64FF4E700A782876FF75DCDA
:10064300CF0207B490029CE0FF7E00D3EF9440EE0C
:1006530064809480500D90029CE0FF8FDD75DCC0B8
:100663000207B475DD0075DCC00207B47828E6FF25
:10067300EF1211A606F7050684060684200000077C
:100683000A7827E6FF7E00C3EF9440EE64809480EF
:1006930040047F4080047827E6FF90029CEFF090AF
:1006A300029CE0FF7E0090028DE0FBA3E0FAA3E052
:1006B300F9C0E0C0E0C0E07B017A007900F8FCFDFE
:1006C300F9FAFB1210197827E6FF90029CE0FEC3AB
:1006D300EF9EFF7827EFF690029CE0FF7E009002EA
:1006E3008EEE8FF012108590029CE0FF8FDD63DCAD
:1006F300400207B4E5E35480FF7827E6FEEF4EF5AA
:10070300E375DC020207B475DD0075DC020207B491
:100713000207B490029CE5DBF07828E6FF7E00EF49
:1007230064204E60030207B120DE030207B190028A
:100733009EE4F090029DE4F090029DE0FF7E00C3F2
:10074300EF9404EE64809480502E90029DE0FF7439
:100753002D2FF8E6FF90029DE0FE74002EF582E453
:100763003400F583E0FEEE6F600690029EE004F035
:1007730090029DE004F080C090029EE0FFEF6028AD
:10078300AFDB7E007B017A007900C0E0C0E0C0E00F
:100793007B007A00792DF8FCFDF9FAFB1210197B26
:1007A300007A00792D1214D175DD0043DC0063DC7F
:1007B30080C2D930D82975DC0275D21075D4127570
:1007C300D61275E300C2DAC2D9C2D878247600788B
:1007D30022760078347600782C7600782B760030F9
:0E07E300DA09C2DAE5DA30E205800375D8FFE4
:0B07F100D0D0D082D083D0F0D0E03216
:101C1E004102550141020E0041020F0041020C002B
:101C2E0041020D0042025A00004202100000420220
:081C3E005600004202580000AC
:1017B800900284E0FFEF70030218BA7F66120046B9
:1017C800900258E4F0A3E4F0900256E4F0A3743FCA
:1017D800F0900256E0FEA3E0FF74002FF58274013A
:1017E8003EF583E0FF7E00900259E02FF09002580A
:1017F800E03EF0900258E0FEA3E0FFEF4E7010903C
:101808000257E024FFF0900256E034FFF080C290C7
:101818000256E0FEA3E0FFEF04FF120046781976B7
:1018280000900256E0FEA3E0FFEF2401FFEE340033
:10183800FE7819E6FD7C00C3ED9FEC9E50187819E0
:10184800E6FF74002FF582E43401F583E0FF12000F
:101858004678190680CB90025AE0FEA3E0FFEE30EE
:10186800E7F490025AE4F0A3E4F0781976007819C6
:10187800E6FF7E00C3EF9440EE64809480502578A4
:1018880019E6FF74132FF582E43402F583E0FF783C
:1018980019E6FE74402EF582E43401F583EFF07802
:1018A800190680CA53D6F375D74053D6FC900284E4
:0218B800E4F05A
:0118BA00220B
:10122B0078177600781876001200037F057E00127F
:10123B001CAA7D047F031218BB121B9CD2AF75D363
:10124B000075D50075D700782C7600900255E0FF1D
:10125B00EF6011209405900255E4F07F647E00123C
:10126B001CAA80E7781776007817E6FF7E00C3EF9D
:10127B009440EE6480948050157817E6FF74132F1A
:10128B00F582E43402F583E4F078170680DA121A5B
:10129B0051C2993094030214C61217B87824E6FF92
:1012AB00EF604E7824E6FF7818A6077F671200469A
:1012BB007818E6FF120046781776007818E6FF7864
:1012CB0017E6FEEEC39F50187817E6FF74802FF5D4
:1012DB0082E43400F583E0FF12004678170680DBCA
:1012EB00782476007824E6FF7E00EF4E700353D40B
:1012FB00F3782AE6FFEF60157F681200467F011234
:10130B000046782AE6FF120046782A7600900210F3
:10131B00E0FEA3E0FFEE20E70302129E782CE6FF2F
:10132B00EF600302129E900210E0FEA3E0FFEF5469
:10133B00FFFF7818A6077818E6FF7E00C3EF9440EE
:10134B00EE64809480503F7818E6FF7E007B017A34
:10135B00017980C003C002C0017B017A0079C0A86B
:10136B0001AC02AD03D001D002D0031210197818D2
:10137B00E6FF8FD553D4FC782C7601900210E4F065
:10138B00A3E4F002129E7818E6FF7E00EF64404E55
:10139B0070507818E6FF7E007B017A017980C003DC
:1013AB00C002C0017B017A0079C0A801AC02AD0379
:1013BB00D001D002D0031210197818E6FF8FD55345
:1013CB00D4FC782C7601782CE6FFEF70F975D500FC
:1013DB0053D4FC782C7601900210E4F0A3E4F002D5
:1013EB00129E7818E6FF7E00D3EF9440EE64809453
:1013FB0080500302129E781776007818E6FFEFC430
:10140B0013135403FF7817E6FEEEC39F505578175E
:10141B00E6FF7E40EF8EF0A4FFAEF074802FF974E0
:10142B00013EFA7B01C003C002C0017B017A007947
:10143B00C0A801AC02AD03D001D002D0037E007F67
:10144B004012101975D54053D4FC782C7601782CAA
:10145B00E6FFEF70F975D500781874C026F678178B
:10146B000680977818E6FF7E00C006C0077817E65F
:10147B00FF7E40EF8EF0A4FFAEF074802FF9740165
:10148B003EFA7B01C003C002C0017B017A0079C028
:10149B00A801AC02AD03D001D002D003D007D00617
:1014AB001210197818E6FF8FD553D4FC782C7601DF
:1014BB00900210E4F0A3E4F002129E7F647E00120F
:0514CB001CAA02129EA4
:0114D00022F9
:030023000207FCD5
:1007FC00C0E0C083C082C0D075D000C004C005C0AA
:10080C0006C007209803020BD3900212E599F090D2
:10081C00025AE0FEA3E0FFEE20E70C900210E0FE8F
:10082C00A3E0FFEE30E7067E007F0180047E007FB0
:10083C0000EF4E6003020A1090025AE0FEA3E0FFA4
:10084C00EE20E60C900210E0FEA3E0FFEE30E60690
:10085C007E007F0180047E007F00EF4E7067900267
:10086C0012E0FF7E00EF64664E701D90025AE0FEAF
:10087C00A3E0FFEE4440FE90025AEEF0A3EFF0909E
:10088C00020C7401F0020BD1900212E0FF7E00EF1B
:10089C0064674E701D900210E0FEA3E0FFEE444032
:1008AC00FE900210EEF0A3EFF090020D7401F00236
:1008BC000BD190025AE4F0A3E4F0900210E4F0A300
:1008CC00E4F0020BD190025AE0FEA3E0FFEE20E62A
:1008DC0003020972900210E0FEA3E0FFEE5440FE0A
:1008EC007F00EFF4FFEEF4FEEF4E607A90020CE026
:1008FC00FFEF6012900212E0FF90020EEFF09002F8
:10090C000CE4F0020BD1900212E0FF90025AE0FCD2
:10091C00A3E0FDEC540FFC74132DF58274023CF52E
:10092C0083EFF090025BE004F0700690025AE00452
:10093C00F090025AE0FEA3E0FFEE540FFE90020E80
:10094C00E0FD7C00EF6D7002EE6C6003020BD19049
:10095C00025AE0FEA3E0FFEE4480FE90025AEEF055
:10096C00A3EFF0020BD190025AE0FEA3E0FFEFF4EC
:10097C00FFEEF4FEEE20E603020BD1900210E0FE37
:10098C00A3E0FFEE20E603020BD190020DE0FFEF97
:10099C006012900212E0FF90020FEFF090020DE453
:1009AC00F0020BD1900212E0FF900210E0FCA3E0E9
:1009BC00FDEC540FFC74802DF58274013CF583EF33
:1009CC00F0900211E004F07006900210E004F09038
:1009DC000210E0FEA3E0FFEE540FFE90020FE0FDCC
:1009EC007C00EF6D7002EE6C6003020BD190021074
:1009FC00E0FEA3E0FFEE4480FE900210EEF0A3EFC9
:100A0C00F0020BD190025AE0FEA3E0FFEE20E703C8
:100A1C00020AF5900210E0FEA3E0FFEE5480FE7F88
:100A2C0000EFF4FFEEF4FEEF4E7003020AF59002B5
:100A3C0010E0FEA3E0FFEE20E635900212E0FF7E10
:100A4C0000EF64674E701D900210E0FEA3E0FFEE15
:100A5C004440FE900210EEF0A3EFF090020D7401F2
:100A6C00F0020BD1900210E4F0A3E4F0020BD19051
:100A7C00020DE0FFEF6012900212E0FF90020FEF08
:100A8C00F090020DE4F0020BD1900212E0FF900204
:100A9C0010E0FCA3E0FDEC540FFC74802DF5827487
:100AAC00013CF583EFF0900211E004F07006900227
:100ABC0010E004F0900210E0FEA3E0FFEE540FFEF5
:100ACC0090020FE0FD7C00EF6D7002EE6C60030293
:100ADC000BD1900210E0FEA3E0FFEE4480FE9002EA
:100AEC0010EEF0A3EFF0020BD190025AE0FEA3E05F
:100AFC00FFEE5480FE7F00EFF4FFEEF4FEEF4E703D
:100B0C0003020BD1900210E0FEA3E0FFEE20E703FE
:100B1C00020BD190025AE0FEA3E0FFEE20E63390E8
:100B2C000212E0FF7E00EF64664E701C90025AE0E9
:100B3C00FEA3E0FFEE4440FE90025AEEF0A3EFF06D
:100B4C0090020C7401F0807D90025AE4F0A3E4F062
:100B5C00807390020CE0FFEF6011900212E0FF90A6
:100B6C00020EEFF090020CE4F0805A900212E0FFBB
:100B7C0090025AE0FCA3E0FDEC540FFC74132DF52D
:100B8C008274023CF583EFF090025BE004F0700697
:100B9C0090025AE004F090025AE0FEA3E0FFEE54FB
:100BAC000FFE90020EE0FD7C00EFB50518EEB504CB
:100BBC001490025AE0FEA3E0FFEE4480FE90025A2D
:100BCC00EEF0A3EFF0C298D007D006D005D004D039
:080BDC00D0D082D083D0E032BA
:1000030075A15575A1AAE5B954F8FFEF4406F5B9F2
:0400130075A10022B1
:101C470090029FEEF0A3EFF090029FE0FEA3E0FF6B
:101C5700EF4E601E05A105A105A105A105A105A1DE
:101C670005A19002A0E024FFF090029FE034FFF06E
:031C770080D622F2
:101CAA009002A1EEF0A3EFF09002A1E0FEA3E0FF04
:101CBA00EF4E60177FE87E03121C479002A2E024D1
:0C1CCA00FFF09002A1E034FFF080DD226A
:041D460043C610225E
:101A5100C29FD29EC29DC2CDC2CC438780900297C5
:101A61001211750000001E7B0A7A0079007800903F
:101A71000297E0FCA3E0FDA3E0FEA3E0FF1210D774
:101A8100AC00AD01AE02AF0390029BEFF090029764
:101A9100E0FCA3E0FDA3E0FEA3E0FF7B0A7A00796E
:101AA1000078001210D790029712116990029BE002
:101AB100FF7E00C3EF9405EE64809480402890027D
:101AC10097E0FCA3E0FDA3E0FEA3E0FF7B017A0029
:101AD10079007800EF2BFFEE3AFEED39FDEC38FC92
:101AE100900297121169E589540FFFEF4420F5899F
:101AF10043C9A0900297E0FCA3E0FDA3E0FEA3E0B0
:0E1B0100FFEFF404F58DD28ED299D29CD2ACB7
:011B0F0022B3
:080058003098FDC298AF992217
:100046009002A7EFF09002A7E0FF8F993099FDC2CA
:020056009922ED
:0A001700C2C7D2C5D2C475C2F322DD
:081D3E0030C0FDC2C0AFC1229C
:101D1F009002A8EFF09002A8E0FF8FC130C1FDD272
:021D2F00C122CF
:101CFD009002A9EFF075A15575A1AA9002A9E0FF78
:101D0D00EF600543B101800353B1FE75A10075FF6E
:021D1D000022A2
:0D1D31009002AAEFF09002AAE0FF8FFF22BF
:100026004750494F5F5354415455533A2025303277
:03003600780A0045
:1018BB009002A3EFF09002A4EDF09002A3E0FFEFF3
:1018CB001211A618DE00190B01193502195F03005E
:1018DB000019859002A4E0FFF87401088002C3335D
:1018EB00D8FCFFEFF4FFEF52929002A4E0FFF874E4
:1018FB0001088002C333D8FCFFEFF4FFEF529322B1
:10190B009002A4E0FFF87401088002C333D8FCFFF7
:10191B00EFF4FFEF52929002A4E0FFF874010880FD
:10192B0002C333D8FCFFEF4293229002A4E0FFF8EE
:10193B007401088002C333D8FCFFEF42929002A4DB
:10194B00E0FFF87401088002C333D8FCFFEFF4FF0B
:10195B00EF5293229002A4E0FFF87401088002C3B7
:10196B0033D8FCFFEF42929002A4E0FFF874010819
:0B197B008002C333D8FCFFEF42932230
:101986009002A5EFF09002A6EDF09002A5E0FFEF21
:101996001211A619A90019D6011A00021A2A030063
:1019A600001A509002A6E0FFF87401088002C333C3
:1019B600D8FCFFEFF4FFEF52969002A6E0FFF87412
:1019C60001088002C333D8FCFFEFF4FFEF529722E1
:1019D6009002A6E0FFF87401088002C333D8FCFF2A
:1019E600EFF4FFEF52969002A6E0FFF8740108802C
:1019F60002C333D8FCFFEF4297229002A6E0FFF81D
:101A06007401088002C333D8FCFFEF42969002A609
:101A1600E0FFF87401088002C333D8FCFFEFF4FF3F
:101A2600EF5297229002A6E0FFF87401088002C3E5
:101A360033D8FCFFEF42969002A6E0FFF874010847
:0B1A46008002C333D8FCFFEF42972260
:0900390053C77F43C73CD2EE22FD
:03006300021C7A02
:101C7A00C0E0C0F0C083C082C0D075D0087BFF7AB4
:101C8A00007926E5C65440FF7E0090025FEEF0A37D
:101C9A00EFF0120C4FD0D0D082D083D0F0D0E03207
:03000000021B10D0
:0C1B1000787FE4F6D8FD758135021B5784
:100F4900E709F608DFFA8046E709F208DFFA803E8A
:100F590088828C83E709F0A3DFFA8032E309F60877
:100F6900DFFA8078E309F208DFFA807088828C83DF
:100F7900E309F0A3DFFA806489828A83E0A3F60893
:100F8900DFFA805889828A83E0A3F208DFFA804C6D
:100F990080D280FA80C680D4806980F28033801044
:100FA90080A680EA809A80A880DA80E280CA8033AD
:100FB90089828A83ECFAE493A3C8C582C8CCC58325
:100FC900CCF0A3C8C582C8CCC583CCDFE9DEE780F5
:100FD9000D89828A83E493A3F608DFF9ECFAA9F074
:100FE900EDFB2289828A83ECFAE0A3C8C582C8CCCA
:100FF900C583CCF0A3C8C582C8CCC583CCDFEADEE3
:10100900E880DB89828A83E493A3F208DFF980CC44
:1010190088F0EF60010E4E60C388F0ED2402B4043D
:101029000050B9F582EB2402B4040050AF232345E4
:061039008223900F997361
:10103F00BB010689828A83E0225002E722BBFE02AF
:09104F00E32289828A83E49322E2
:10105800BB010CE58229F582E5833AF583E022504D
:1010680006E92582F8E622BBFE06E92582F8E22297
:0D107800E58229F582E5833AF583E49322B1
:10108500C5F0F8A3E028F0C5F0F8E58215827002F6
:061095001583E038F02293
:10109B0075F008758200EF2FFFEE33FECD33CDCC0C
:1010AB0033CCC58233C5829BED9AEC99E58298408F
:1010BB000CF582EE9BFEED9AFDEC99FC0FD5F0D66C
:1010CB00E4CEFBE4CDFAE4CCF9A88222B800C1B996
:1010DB000059BA002DEC8BF084CFCECDFCE5F0CBD4
:1010EB00F97818EF2FFFEE33FEED33FDEC33FCEB0D
:1010FB0033FB10D703994004EB99FB0FD8E5E4F9C8
:10110B00FA227818EF2FFFEE33FEED33FDEC33FCB4
:10111B00C933C910D7059BE99A4007EC9BFCE99AA8
:10112B00F90FD8E0E4C9FAE4CCFB2275F010EF2FED
:10113B00FFEE33FEED33FDCC33CCC833C810D707ED
:10114B009BEC9AE899400AED9BFDEC9AFCE899F828
:0E115B000FD5F0DAE4CDFBE4CCFAE4C8F922BB
:0C116900ECF0A3EDF0A3EEF0A3EFF022F9
:10117500A8828583F0D083D08212118C12118C1233
:10118500118C12118CE473E493A3C583C5F0C58358
:10119500C8C582C8F0A3C583C5F0C583C8C582C8C4
:0111A5002227
:1011A600D083D082F8E4937012740193700DA3A3D8
:1011B60093F8740193F5828883E4737402936860EC
:0611C600EFA3A3A380DFEC
:1011CC00D083D082F8E4937012740193700DA3A3B2
:1011DC0093F8740193F5828883E473740293B5F0E9
:0D11EC00067403936860E9A3A3A3A380D851
:100BE400E510245FF582E43402F583E005102290D9
:100BF400025C30070390025FE475F00112120B02ED
:100C0400103F2000E97F2ED2008018EF540F24906B
:100C1400D43440D4FF30040BEF24BFB41A00500383
:100C24002461FFE511600215110514E51470020535
:100C34001330070E90025CE475F00112120BEF0200
:100C440011F9021CD67403D2078003E4C207F5101D
:100C540090025C121222E4F511F513F514E511600B
:100C6400077F20120C2780F57512FFC201C200C253
:100C740002C203C205C206C208120BF3FF700D3094
:100C840007057F00120C38AF14AE1322B4255FC2DF
:100C9400D5C204120BF3FF24D0B40A00501A75F025
:100CA4000A781130D50508B6FF0106C6A426F62039
:100CB400D5047002D20380D924CFB41A00EF5004B3
:100CC400C2E5D204020E39D20180C6D20080C0D25D
:100CD4000280BCD2D580BAD20580B47F20120C2702
:100CE4002002077401B5110040F1120BE4FF120C4D
:100CF40027020C61D208D2068095120BE4FB120B7A
:100D0400E4FA120BE4F94A4B7006790A7A0F7BFF76
:100D140020022EE511602A7E008E82758300121057
:100D24005860060EEE651270F0C2D5EBC0E0EAC062
:100D3400E0E9C0E0EE120E80D0E0F9D0E0FAD0E0B5
:100D4400FB12103FFF60AAEBC0E0EAC0E0E9C0E09C
:100D5400120C27D0E02401F9D0E03400FAD0E0FBF3
:100D6400E5120460DCD512D980877BFF7A0E797C8A
:100D7400D202809C791080027908C206C2088008D9
:100D8400D2D5790A8004790AC2D5E512047002F535
:100D940012E4FAFDFEFF120BE4FC7B08200113129F
:100DA4000BE4FD7B1030000A120BE4FE120BE4FF8F
:100DB4007B20EC3382D592D55013C3E43000069FD8
:100DC400FFE49EFEE42001039DFDE49CFCE4CBF8DB
:100DD400C201EC700CCFCECDCCE824F8F870F380CF
:100DE40017C3EF33FFEE33FEED33FDEC33FCEB338F
:100DF400FB994002FB0FD8E9EB300105F8D0E0C4C1
:100E040048B201C0E00AEC4D4E4F78207B0070C21E
:100E1400EAB5120040BCC0E0120E82D0F0D0E0204F
:100E24000104C4C0E0C4B201C0F0120C10D0F0D56B
:100E3400F0EB020C611211A60CFE530D78580CCF86
:100E44004C0CCB420D7C4F0D84440D84490CE4437F
:080E54000D8A550D6E460D6E6E
:100E5C00450D6E470F2A500CD32D0CD72E0CFA2BA8
:100E6C000CDB230CF8200F132A0C934800000CF217
:100E7C003F3F3F00790AA2D5200314300509B91071
:100E8C00020404B9080104A2D52006025001042072
:100E9C0002689202B511005034C0E07F2030031973
:100EAC007F30A20272067205500F120ED9C202C216
:100EBC0006C205C2087F30800F300503E9C0E0127E
:100ECC000C27300503D0E0F9D0E0B511CC30051774
:100EDC007F30B9100C120C277F583004077F7880B4
:100EEC0003B90803120C273002057F2D020C277F53
:100EFC00202008F87F2B2006F322920280CF286E48
:100F0C00756C6C2900D201120BE43001F8C2017827
:100F1C001130D50108F6020C932D50434958120B91
:100F2C00E42403B405004001E4900F2593120C183F
:0D0F3C00743A120C18D203751104020D78DE
:101B1C0002122BE493A3F8E493A34003F68001F2A2
:101B2C0008DFF48029E493A3F85407240CC8C333CA
:101B3C00C4540F4420C8834004F456800146F6DF99
:101B4C00E4800B0102040810204080901BFEE47E10
:101B5C00019360BCA3FF543F30E509541FFEE4938E
:101B6C00A360010ECF54C025E060A840B8E493A355
:101B7C00FAE493A3F8E493A3C8C582C8CAC583CA80
:101B8C00F0A3C8C582C8CAC583CADFE9DEE780BE38
:011C4600009D
:1011F900BB010689828A83F0225002F722BBFE01D5
:02120900F322CE
:10120B00F8E0FBA3A3E0F925F0F0E582158270026C
:07121B001583E0FA38F02210
:09122200EBF0A3EAF0A3E9F022CD
:101CD600EFB40A07740D121CE1740A309811A89922
:101CE600B8130CC2983098FDA899C298B811F6306E
:071CF60099FDC299F5992246
:00000001FF
